:100000000C9434000C943D010C94C4000C945100E9
:100010000C9451000C9451000C9451000C9451001C
:100020000C9451000C9451000C9451000C9451000C
:100030000C9451000C9451000C9451000C945100FC
:100040000C9451000C9451000C9499000C945100A4
:100050000C9451000C9451000C9451000C945100DC
:100060000C9451000C94510011241FBECFEFD8E026
:10007000DEBFCDBF11E0A0E0B1E0EAE4F4E002C0F1
:1000800005900D92A033B107D9F721E0A0E3B1E0CC
:1000900001C01D92A038B207E1F70E9449010C94FB
:1000A00023020C940000282F2695269526952530AE
:1000B00008F024E0877098E0299F900111242B5FBD
:1000C0003E4F280F311D660FF9016083089580535C
:1000D0008930D8F4E82FF0E0E059FF4F0C941D026E
:1000E0008A008A00880088008600860079007900EE
:1000F0008C0083E090E0FC01EF5CFE4F21E0208368
:1001000080509F4F660FFC016083089582E0F2CF1C
:1001100081E0F0CF80E0EECF84E0ECCF5C988EBD44
:100120000DB407FEFDCF6EBD0DB407FEFDCF5C9A8A
:1001300008951F920F920FB60F9211248F93EF9391
:10014000FF9380913F018034B8F480913F018F5F2D
:1001500080933F01E0913D0181E08E0F80933D014E
:10016000F0E08091C600E35CFE4F838380913D0107
:10017000803410F010923D01FF91EF918F910F901C
:100180000FBE0F901F9018951F920F920FB60F92EF
:100190001124EF92FF920F931F932F933F934F934E
:1001A0005F936F937F938F939F93AF93BF93CF93FF
:1001B000DF93EF93FF9390913001292F2770892FC0
:1001C0008695869586958770983208F049C09F5F1E
:1001D0009093300138E0839FC00111248B5F9E4FC4
:1001E000820F911DFC01608181E00E948E0081E3FD
:1001F000E82E81E0F82ED0E0C0E008E0F701119190
:100200007F01112391F0113071F5FE01E050FF4F95
:100210006081802F0C2E01C0880F0A94EAF70E949B
:100220008E00F70131971F5F10832196C530D105ED
:1002300029F7FF91EF91DF91CF91BF91AF919F91FE
:100240008F917F916F915F914F913F912F911F916E
:100250000F91FF90EF900F900FBE0F901F90189589
:1002600010923001B7CF1933E0F260E0802F0C2EEE
:1002700001C0880F0A94EAF7D2CF1F920F920FB6EF
:100280000F921124109230010F900FBE0F901F900B
:10029000189510923E0110923D0110923F018FE19E
:1002A0008093C40088E98093C10083E590E0909337
:1002B00037018093360187E690E09093390180936F
:1002C00038018091C100877F8093C100F8948091AC
:1002D00069008F60809369008DB383608DBB9FEF51
:1002E00094B98FE387B982EF8AB988E08BB915B8E2
:1002F00018B88AB1806D8AB994B980E58CBD81E067
:100300008DBD6FEF80E00E948E008FE99FE0019726
:10031000F1F700C00000789480913F018823E1F359
:1003200080913F018823E1F3E0913E0181E08E0F4F
:1003300080933E01F0E0E35CFE4F8381F89490915E
:100340003F01915090933F01789490913E019034F9
:1003500010F010923E01883FF8F687FF10C080939E
:100360002E0110923C0180912E0160913C01803F52
:10037000B8F0803F89F0823F49F160E00EC0E09123
:100380003C01E23080F791E09E0F90933C01F0E059
:10039000E65CFE4F8083E7CF61E060933C01BCCF19
:1003A000982F9F7020912D012F3F11F490932D01D4
:1003B000807F20912D01291331C0803B11F148F439
:1003C000803971F0803A11F0803839F76230A8F640
:1003D000E4CF803D91F2803EC9F3803CF1F6CDCF71
:1003E0006230D8F260913B016623B9F2E0913801A6
:1003F000F091390180913A01309709F4BECF099507
:10040000BCCF623050F280913A0160913B01E091A3
:100410003601F0913701309791F7AFCF803AB1F2C2
:1004200030F4803899F2803909F0A7CFCFCF803BE4
:1004300069F2803E09F0A1CFC9CFEE0FFF1F0590F2
:0A044000F491E02D0994F894FFCF29
:10044A007F7F7F7F7F806080808080408080808007
:10045A004040804080C480FF80408080808080FF50
:10046A0080408080804080FF8040808080FF9000B4
:00000001FF
